:100000000C942A000C947E070C9447000C94470033
:100010000C9447000C9447000C9447000C94470044
:100020000C9447000C9447000C9447000C94D307A1
:100030000C9447000C9447000C9447000C94470024
:100040000C9447000C9447000C9447000C94470014
:100050000C94470011241FBECFE5D8E0DEBFCDBF12
:1000600010E0A0E6B0E0E2EFF8E202C005900D92E9
:10007000A23AB107D9F710E0A2EAB0E001C01D92A0
:10008000AE3AB107E1F70E94FF0D0C9477140C947F
:100090000000EF92FF920F931F937B018C0120E0F1
:1000A00030E040E05FE40E94F50388238CF0C80153
:1000B000B70120E030E040E05FE40E94C1010E940F
:1000C00055049B01AC01205030404040504806C0D0
:1000D000C801B7010E9455049B01AC01B901CA01D6
:1000E0001F910F91FF90EF900895A0E0B0E0EBE733
:1000F000F0E00C944014DC012B01FA019C91923049
:1001000008F439C1EB018881823008F433C194309E
:1001100069F4843009F02FC111969C91119789815F
:10012000981709F428C1A9E9B0E025C1843009F481
:1001300021C18230A9F4923009F01DC19A01AD01AC
:1001400088E0EA010990AE01E90109929E0181501F
:10015000C1F7E201898111969C918923818308C1AD
:10016000923009F407C112962D903C901397EB0141
:100170008A819B811496AD90BD90CD90DC901797AD
:10018000EC80FD800E811F819101281B390BB90184
:1001900037FF04C066277727621B730B6032710537
:1001A0000CF061C0121613066CF537014801062EDB
:1001B00004C096948794779467940A94D2F721E0C8
:1001C00030E040E050E004C0220F331F441F551FB1
:1001D0006A95D2F721503040404050402E213F21B7
:1001E00040235123211531054105510521F021E01E
:1001F00030E040E050E079018A01E628F72808293C
:1002000019293CC0232BD1F1260E371E350146019A
:10021000062E04C096948794779467940A94D2F734
:1002200021E030E040E050E004C0220F331F441FC3
:10023000551F6A95D2F721503040404050402A2146
:100240003B214C215D21211531054105510521F04E
:1002500021E030E040E050E059016A01A628B728CB
:10026000C828D9280BC0821593052CF01C01AA249C
:10027000BB24650103C0EE24FF24870111969C91E5
:10028000D20111968C91981709F445C0992339F041
:10029000A80197012A193B094C095D0906C0A6016E
:1002A00095012E193F09400B510B57FD08C01182D3
:1002B0003382228224833583468357831DC081E0A5
:1002C00081833382228288279927DC01821B930B4A
:1002D000A40BB50B84839583A683B7830DC0220F2F
:1002E000331F441F551F24833583468357838281E0
:1002F000938101979383828324813581468157813D
:10030000DA01C9010197A109B1098F5F9F4FAF4F72
:10031000BF4328F30BC0918333822282EA0CFB1C7B
:100320000C1D1D1DE482F5820683178383E0808304
:10033000248135814681578157FF1AC0C901AA27F8
:1003400097FDA095BA2F81709070A070B0705695EF
:10035000479537952795822B932BA42BB52B848318
:100360009583A683B7838281938101969383828349
:10037000DF0101C0D201CD01CDB7DEB7E2E10C94BF
:100380005C14A0E2B0E0E7ECF1E00C944C1469835B
:100390007A838B839C832D833E834F835887E9E048
:1003A000EE2EF12CEC0EFD1ECE010196B7010E943F
:1003B0007E058E010F5E1F4FCE010596B8010E948B
:1003C0007E058A8991E089278A8BC701B801AE0131
:1003D000475E5F4F0E9475000E94A904A096E6E068
:1003E0000C946814A0E2B0E0E8EFF1E00C944C1437
:1003F00069837A838B839C832D833E834F835887C5
:10040000F9E0EF2EF12CEC0EFD1ECE010196B701A6
:100410000E947E058E010F5E1F4FCE010596B8012A
:100420000E947E05C701B801AE01475E5F4F0E9482
:1004300075000E94A904A096E6E00C946814A0E25E
:10044000B0E0E5E2F2E00C94401469837A838B8398
:100450009C832D833E834F835887CE010196BE0136
:10046000675F7F4F0E947E05CE010596BE016F5EDD
:100470007F4F0E947E059985923088F0898982306D
:10048000C8F0943019F4823051F404C0843029F457
:10049000923081F489E990E0C6C0923049F420E0BE
:1004A0009A858A89981321E02A87CE010996BBC0D4
:1004B000823049F420E09A858A89981321E02A8BBA
:1004C000CE014196B0C02D843E844F8458886D88FB
:1004D0007E888F88988CEE24FF248701AA24BB2471
:1004E000650140E050E060E070E0E0E0F0E0C10174
:1004F00081709070892BE9F0E60CF71C081D191D1E
:100500009A01AB012A0D3B1D4C1D5D1D80E090E062
:10051000A0E0B0E0E614F7040805190520F481E036
:1005200090E0A0E0B0E0BA01A901480F591F6A1F8E
:100530007B1FAA0CBB1CCC1CDD1C97FE08C081E0F5
:1005400090E0A0E0B0E0A82AB92ACA2ADB2A3196B6
:10055000E032F10549F0660C771C881C991C569412
:10056000479437942794C3CFFA85EA892B893C892D
:100570008B859C85280F391F2E5F3F4F17C0CA01FE
:1005800081709070892B61F016950795F794E79428
:1005900080E090E0A0E0B0E8E82AF92A0A2B1B2BC3
:1005A00076956795579547952F5F3F4F77FDE7CF36
:1005B0000CC0440F551F661F771F17FD4160EE0CDE
:1005C000FF1C001F111F21503040403090E05907A0
:1005D00090E0690790E4790760F32B8F3C8FDB0193
:1005E000CA018F779070A070B07080349105A1051A
:1005F000B10561F447FD0AC0E114F10401051105DC
:1006000029F0405C5F4F6F4F7F4F40781A8EFE1786
:1006100011F081E08A8F4D8F5E8F6F8F78A383E01A
:10062000898FCE0149960E94A904A096E2E10C941C
:100630005C14A8E1B0E0EFE1F3E00C9448146983A6
:100640007A838B839C832D833E834F835887B9E0C5
:10065000EB2EF12CEC0EFD1ECE010196B7010E948F
:100660007E058E010F5E1F4FCE010596B8010E94D8
:100670007E052985223008F47EC03989323010F495
:10068000B8017CC08A859A8989278A87243011F02D
:10069000223031F4231709F06EC069E970E06EC0B2
:1006A000343039F41D861E861F86188A1C861B86E8
:1006B00004C0323021F484E08987B7015FC02B8504
:1006C0003C858B899C89281B390B3C872B87ED84C3
:1006D000FE840F851889AD88BE88CF88D88CEA142F
:1006E000FB040C051D0540F4EE0CFF1C001F111F40
:1006F000215030403C872B8720E030E040E050E044
:1007000080E090E0A0E0B0E460E070E0EA14FB0478
:100710000C051D0540F0282B392B4A2B5B2BEA18C2
:10072000FB080C091D09B695A79597958795EE0CC2
:10073000FF1C001F111F6F5F7F4F6F31710531F775
:10074000DA01C9018F779070A070B0708034910584
:10075000A105B10561F427FD0AC0E114F10401050A
:10076000110529F0205C3F4F4F4F5F4F20782D87B8
:100770003E874F87588BBE01675F7F4FCB010E943A
:10078000A9046896EAE00C946414A8E1B0E0EBECEC
:10079000F3E00C944C1469837A838B839C832D83C0
:1007A0003E834F83588789E0E82EF12CEC0EFD1E26
:1007B000CE010196B7010E947E058E010F5E1F4F8C
:1007C000CE010596B8010E947E058985823040F0F1
:1007D0008989823028F0C701B8010E94F60501C05E
:1007E0008FEF6896E6E00C946814A8E1B0E0EBEFB8
:1007F000F3E00C944C1469837A838B839C832D8360
:100800003E834F83588789E0E82EF12CEC0EFD1EC5
:10081000CE010196B7010E947E058E010F5E1F4F2B
:10082000CE010596B8010E947E058985823040F090
:100830008989823028F0C701B8010E94F60501C0FD
:100840008FEF6896E6E00C946814A8E1B0E0EBE264
:10085000F4E00C944C1469837A838B839C832D83FE
:100860003E834F83588789E0E82EF12CEC0EFD1E65
:10087000CE010196B7010E947E058E010F5E1F4FCB
:10088000CE010596B8010E947E058985823040F030
:100890008989823028F0C701B8010E94F60501C09D
:1008A00081E06896E6E00C946814ACE0B0E0EBE51B
:1008B000F4E00C94501469837A838B839C83CE017B
:1008C0000196BE016B5F7F4F0E947E058D81823055
:1008D00061F1823050F1843021F48E81882351F10E
:1008E0002EC02F81388537FD20C06E812F31310514
:1008F0001CF06623F9F023C08EE190E0821B930B7D
:1009000029853A854B855C8504C056954795379572
:1009100027958A95D2F76623B1F05095409530958A
:1009200021953F4F4F4F5F4F0EC020E030E040E039
:1009300050E009C02FEF3FEF4FEF5FE704C020E02A
:1009400030E040E050E8B901CA012C96E2E00C9496
:100950006C14DF92EF92FF920F931F93FC01E480DF
:10096000F58006811781D1808081823048F480E053
:1009700090E0A0E1B0E0E82AF92A0A2B1B2BA5C0E1
:10098000843009F49FC0823021F4EE24FF248701D3
:1009900005C0E114F1040105110519F4E0E0F0E0EF
:1009A00096C0628173819FEF623879070CF05BC05B
:1009B00022E83FEF261B370B2A3131052CF020E0CF
:1009C00030E040E050E02AC0B801A701022E04C088
:1009D00076956795579547950A94D2F781E090E010
:1009E000A0E0B0E004C0880F991FAA1FBB1F2A9582
:1009F000D2F70197A109B1098E219F21A023B1232C
:100A00000097A105B10521F081E090E0A0E0B0E001
:100A10009A01AB01282B392B4A2B5B2BDA01C90138
:100A20008F779070A070B07080349105A105B105EA
:100A300039F427FF09C0205C3F4F4F4F5F4F04C080
:100A4000215C3F4F4F4F5F4FE0E0F0E02030A0E0EF
:100A50003A07A0E04A07A0E45A0710F0E1E0F0E00E
:100A600079018A0127C06038710564F5FB01E158FE
:100A7000FF4FD801C7018F779070A070B07080349D
:100A80009105A105B10539F4E7FE0DC080E490E0C1
:100A9000A0E0B0E004C08FE390E0A0E0B0E0E80E9A
:100AA000F91E0A1F1B1F17FF05C016950795F7941F
:100AB000E794319687E016950795F794E7948A9521
:100AC000D1F705C0EE24FF248701EFEFF0E06E2F91
:100AD000679566276795902F9F77D794DD24D794E5
:100AE0008E2F8695492F462B582F5D29B701CA01B5
:100AF0001F910F91FF90EF90DF900895FC01DB01B3
:100B0000408151812281622F6F7770E0221F22275E
:100B1000221F9381892F880F822B282F30E0991F65
:100B20009927991F11969C93119721153105A9F5C5
:100B3000411551056105710511F482E037C082E865
:100B40009FEF13969C938E9312979A01AB0167E0E7
:100B5000220F331F441F551F6A95D1F783E08C93F2
:100B60000DC0220F331F441F551F12968D919C916B
:100B70001397019713969C938E931297203080E0E1
:100B8000380780E0480780E4580758F314962D93FF
:100B90003D934D935C93179708952F3F310579F45A
:100BA000411551056105710519F484E08C93089590
:100BB00064FF03C081E08C9312C01C9210C02F57B9
:100BC000304013963C932E93129783E08C9387E0EA
:100BD000440F551F661F771F8A95D1F770641496CE
:100BE0004D935D936D937C93179708951F93DC014C
:100BF000FB019C91923008F447C08081823008F458
:100C000043C0943051F411961C91843099F5818140
:100C1000682F70E0611B71093FC0843021F0923071
:100C200031F48230B9F18181882389F12DC0119688
:100C30001C9111978230F1F081811817D9F4129626
:100C40002D913C911397828193818217930794F0A1
:100C500028173907BCF014968D919D910D90BC9189
:100C6000A02D2481358146815781281739074A07ED
:100C70005B0718F4112341F00AC082179307A407F9
:100C8000B50740F4112319F061E070E005C06FEF83
:100C90007FEF02C060E070E0CB011F910895DF9309
:100CA000CF93CDB7DEB7A7E3B0E0E7E3F0E0808114
:100CB00080628C93A1E3B0E0E1E3F0E080818B7F80
:100CC0008C93A5E5B0E0E5E5F0E0808183608C934E
:100CD000ABE5B0E0EBE5F0E0808180648C93E3E588
:100CE000F0E082E08083E2E5F0E01082A9E5B0E088
:100CF000E9E5F0E0808181608C93CF91DF910895E8
:100D0000DF93CF93CDB7DEB768970FB6F894DEBF09
:100D10000FBECDBFA8E3B0E0E8E3F0E080818062E1
:100D20008C9380E090E0A0E2B1E48D8B9E8BAF8B42
:100D3000B88F6D897E898F89988D2BEA3AEA4AE2CD
:100D400050E40E941F02DC01CB01898B9A8BAB8B94
:100D5000BC8B69897A898B899C8920E030E040E8E6
:100D60005FE30E94250488231CF481E0888B91C0F6
:100D700069897A898B899C8920E030E04FE753E4C8
:100D80000E94C50318160CF07BC06D897E898F897F
:100D9000988D20E030E04AE754E40E941903DC011A
:100DA000CB018C879D87AE87BF876C857D858E85BF
:100DB0009F8520E030E04AEF54E40E941F02DC01EE
:100DC000CB0188879987AA87BB87688579858A85BB
:100DD0009B8520E030E040E85FE30E942504882303
:100DE0002CF481E090E09F838E833FC068857985F5
:100DF0008A859B8520E03FEF4FE757E40E94C503BB
:100E000018164CF56C857D858E859F8520E030E039
:100E100040E251E40E941F02DC01CB01BC01CD0184
:100E20000E944900DC01CB019F838E830FC088ECB8
:100E300090E09D838C838C819D810197F1F79D8348
:100E40008C838E819F8101979F838E838E819F816A
:100E5000009769F724C0688579858A859B850E94FB
:100E60004900DC01CB019F838E838E819F819B8310
:100E70008A838A819B810197F1F79B838A830FC0C4
:100E800069897A898B899C890E944900DC01CB01A0
:100E9000888B8889898389818A95F1F78983A8E37A
:100EA000B0E0E8E3F0E080818F7D8C9368960FB628
:100EB000F894DEBF0FBECDBFCF91DF910895DF93D1
:100EC000CF9300D0CDB7DEB70E9480060CC08091D2
:100ED000A4009091A5002AE330E0B9010E940A1411
:100EE000CB019A8389838091A600813081F7898123
:100EF0009A810F900F90CF91DF9108951F920F92DA
:100F00000FB60F9211242F933F938F939F93AF931C
:100F1000BF93EF93FF93DF93CF93CDB7DEB780916D
:100F2000A7008823A1F4E2E5F0E010821092A3006C
:100F30001092A200A5E5B0E0E5E5F0E080818E7FAB
:100F40008C9381E08093A7001092A6001DC0809131
:100F5000A2009091A300382F2227E2E5F0E08081E3
:100F6000882F90E0820F931F9093A5008093A40098
:100F700081E08093A600A5E5B0E0E5E5F0E08081A2
:100F800081608C931092A700CF91DF91FF91EF9138
:100F9000BF91AF919F918F913F912F910F900FBE75
:100FA0000F901F9018951F920F920FB60F92112459
:100FB0008F939F93DF93CF93CDB7DEB78091A2003D
:100FC0009091A30001969093A3008093A200CF91EB
:100FD000DF919F918F910F900FBE0F901F901895EA
:100FE000DF93CF93CDB7DEB7E9970FB6F894DEBFA6
:100FF0000FBECDBF89AF81E060E040E00E94B71135
:1010000080E090E0A0E8BFE38DAB9EABAFABB8AFA4
:101010006DA97EA98FA998AD20E030E04AEF54E495
:101020000E941F02DC01CB0189AB9AABABABBCAB1E
:1010300069A97AA98BA99CA920E030E040E85FE388
:101040000E94250488232CF481E090E098AB8FA7C0
:101050003FC069A97AA98BA99CA920E03FEF4FE77F
:1010600057E40E94C50318164CF56DA97EA98FA9F7
:1010700098AD20E030E040E251E40E941F02DC0124
:10108000CB01BC01CD010E944900DC01CB0198AB32
:101090008FA70FC088EC90E09EA78DA78DA59EA579
:1010A0000197F1F79EA78DA78FA598A9019798ABF7
:1010B0008FA78FA598A9009769F714C069A97AA985
:1010C0008BA99CA90E944900DC01CB0198AB8FA79A
:1010D0008FA598A99CA78BA78BA59CA50197F1F735
:1010E0009CA78BA781E061E041E00E94B71180E0FE
:1010F00090E0A0E8BFE38FA398A7A9A7BAA76FA124
:1011000078A589A59AA520E030E04AEF54E40E9432
:101110001F02DC01CB018BA39CA3ADA3BEA36BA1DB
:101120007CA18DA19EA120E030E040E85FE30E9419
:10113000250488232CF481E090E09AA389A33FC082
:101140006BA17CA18DA19EA120E03FEF4FE757E46A
:101150000E94C50318164CF56FA178A589A59AA51C
:1011600020E030E040E251E40E941F02DC01CB01AC
:10117000BC01CD010E944900DC01CB019AA389A3E7
:101180000FC088EC90E098A38F8F8F8D98A1019766
:10119000F1F798A38F8F89A19AA101979AA389A3A8
:1011A00089A19AA1009769F714C06BA17CA18DA1B8
:1011B0009EA10E944900DC01CB019AA389A389A1C9
:1011C0009AA19E8F8D8F8D8D9E8D0197F1F79E8FA9
:1011D0008D8F80E069AD0E94811380E090E0A0E8EF
:1011E000BFE3898F9A8FAB8FBC8F698D7A8D8B8D82
:1011F0009C8D20E030E04AEF54E40E941F02DC01A5
:10120000CB018D8B9E8BAF8BB88F6D897E898F893B
:10121000988D20E030E040E85FE30E9425048823B9
:101220002CF481E090E09C8B8B8B3FC06D897E8994
:101230008F89988D20E03FEF4FE757E40E94C50368
:1012400018164CF5698D7A8D8B8D9C8D20E030E0E1
:1012500040E251E40E941F02DC01CB01BC01CD0140
:101260000E944900DC01CB019C8B8B8B0FC088EC6A
:1012700090E09A8B898B89899A890197F1F79A8BEB
:10128000898B8B899C8901979C8B8B8B8B899C8903
:10129000009769F714C06D897E898F89988D0E94A7
:1012A0004900DC01CB019C8B8B8B8B899C89988BB3
:1012B0008F878F8598890197F1F7988B8F8781E0C9
:1012C00061E040E00E94B71180E090E0A0E8BFE359
:1012D0008B879C87AD87BE876B857C858D859E853A
:1012E00020E030E04AEF54E40E941F02DC01CB0111
:1012F0008F839887A987BA876F81788589859A8532
:1013000020E030E040E85FE30E94250488232CF4CD
:1013100081E090E09E838D833FC06F8178858985D1
:101320009A8520E03FEF4FE757E40E94C503181667
:101330004CF56B857C858D859E8520E030E040E214
:1013400051E40E941F02DC01CB01BC01CD010E94CF
:101350004900DC01CB019E838D830FC088EC90E0B7
:101360009C838B838B819C810197F1F79C838B837A
:101370008D819E8101979E838D838D819E810097B3
:1013800069F714C06F81788589859A850E94490024
:10139000DC01CB019E838D838D819E819A8389831D
:1013A00089819A810197F1F79A838983E9960FB62B
:1013B000F894DEBF0FBECDBFCF91DF910895DF93CC
:1013C000CF93CDB7DEB7AB970FB6F894DEBF0FBEA5
:1013D000CDBF8BA781E060E041E00E94B71180E0C3
:1013E00090E0A0E8BFE38FA398A7A9A7BAA76FA131
:1013F00078A589A59AA520E030E04AEF54E40E9440
:101400001F02DC01CB018BA39CA3ADA3BEA36BA1E8
:101410007CA18DA19EA120E030E040E85FE30E9426
:10142000250488232CF481E090E09AA389A33FC08F
:101430006BA17CA18DA19EA120E03FEF4FE757E477
:101440000E94C50318164CF56FA178A589A59AA529
:1014500020E030E040E251E40E941F02DC01CB01B9
:10146000BC01CD010E944900DC01CB019AA389A3F4
:101470000FC088EC90E098A38F8F8F8D98A1019773
:10148000F1F798A38F8F89A19AA101979AA389A3B5
:1014900089A19AA1009769F714C06BA17CA18DA1C5
:1014A0009EA10E944900DC01CB019AA389A389A1D6
:1014B0009AA19E8F8D8F8D8D9E8D0197F1F79E8FB6
:1014C0008D8F81E061E041E00E94B71180E090E003
:1014D000A0E8BFE3898F9A8FAB8FBC8F698D7A8D1F
:1014E0008B8D9C8D20E030E04AEF54E40E941F0277
:1014F000DC01CB018D8B9E8BAF8BB88F6D897E8984
:101500008F89988D20E030E040E85FE30E94250459
:1015100088232CF481E090E09C8B8B8B3FC06D89FD
:101520007E898F89988D20E03FEF4FE757E40E9436
:10153000C50318164CF5698D7A8D8B8D9C8D20E036
:1015400030E040E251E40E941F02DC01CB01BC010B
:10155000CD010E944900DC01CB019C8B8B8B0FC01D
:1015600088EC90E09A8B898B89899A890197F1F7A9
:101570009A8B898B8B899C8901979C8B8B8B8B8910
:101580009C89009769F714C06D897E898F89988D31
:101590000E944900DC01CB019C8B8B8B8B899C8941
:1015A000988B8F878F8598890197F1F7988B8F8714
:1015B00080E06BA50E94811381E061E040E00E9421
:1015C000B71180E090E0A0E8BFE38B879C87AD87F0
:1015D000BE876B857C858D859E8520E030E04AEF57
:1015E00054E40E941F02DC01CB018F839887A987F6
:1015F000BA876F81788589859A8520E030E040E858
:101600005FE30E94250488232CF481E090E09E8310
:101610008D833FC06F81788589859A8520E03FEF73
:101620004FE757E40E94C50318164CF56B857C857F
:101630008D859E8520E030E040E251E40E941F024B
:10164000DC01CB01BC01CD010E944900DC01CB01D2
:101650009E838D830FC088EC90E09C838B838B816D
:101660009C810197F1F79C838B838D819E810197EB
:101670009E838D838D819E81009769F714C06F8151
:10168000788589859A850E944900DC01CB019E837B
:101690008D838D819E819A83898389819A81019727
:1016A000F1F79A838983AB960FB6F894DEBF0FBE2D
:1016B000CDBFCF91DF910895DF93CF93CDB7DEB744
:1016C0002E970FB6F894DEBF0FBECDBF81E060E06D
:1016D00041E00E94CC1081E061E041E00E94CC102A
:1016E00080E06FEF0E943D1380E090E0A0EAB1E45B
:1016F0008B879C87AD87BE876B857C858D859E8516
:1017000020E030E04AEF54E40E941F02DC01CB01EC
:101710008F839887A987BA876F81788589859A850D
:1017200020E030E040E85FE30E94250488232CF4A9
:1017300081E090E09E838D833FC06F8178858985AD
:101740009A8520E03FEF4FE757E40E94C503181643
:101750004CF56B857C858D859E8520E030E040E2F0
:1017600051E40E941F02DC01CB01BC01CD010E94AB
:101770004900DC01CB019E838D830FC088EC90E093
:101780009C838B838B819C810197F1F79C838B8356
:101790008D819E8101979E838D838D819E8100978F
:1017A00069F714C06F81788589859A850E94490000
:1017B000DC01CB019E838D838D819E819A838983F9
:1017C00089819A810197F1F79A83898388E30E943E
:1017D000F0078CE00E94F00781E00E94F0072E964F
:1017E0000FB6F894DEBF0FBECDBFCF91DF91089545
:1017F000DF93CF9300D00F92CDB7DEB79B838A8360
:10180000198219820EC08981282F30E08A819B813C
:10181000FC01E20FF31F80810E94DF0989818F5F45
:1018200089838981282F30E08A819B81FC01E20F26
:10183000F31F8081882339F70F900F900F90CF917D
:10184000DF910895DF93CF9300D000D00F92CDB7F2
:10185000DEB78A836B838A81282F30E03D832C8317
:101860008C819D81009731F02C813D8121303105A3
:1018700021F006C08B81898303C08B81805C8983C2
:10188000898180680E94F0070F900F900F900F9051
:101890000F90CF91DF910895DF93CF9300D000D0C8
:1018A000CDB7DEB789836A835C834B8389816A8184
:1018B0000E94220C8B819C810E94F80B0F900F904C
:1018C0000F900F90CF91DF910895DF93CF93CDB715
:1018D000DEB781E00E94F007CF91DF9108950F936A
:1018E0001F93DF93CF93CDB7DEB767970FB6F8940A
:1018F000DEBF0FBECDBF6C8B7D8B8E8B9F8B1B8213
:101900001A821B822EC08B81082F10E08C899D8942
:10191000AE89BF892AE030E040E050E0BC01CD0153
:101920000E941E14DC01CB01282F205DCE010496FD
:10193000FC01E00FF11F20838C899D89AE89BF894E
:101940002AE030E040E050E0BC01CD010E941E14CE
:10195000DA01C9018C8B9D8BAE8BBF8B8B818F5F26
:101960008B838C899D89AE89BF890097A105B105BC
:1019700051F68B818A831B823DC08B81282F30E0FA
:10198000CE010496FC01E20FF31F808189838B81D5
:10199000482F50E08A81282F30E08B81882F90E0FB
:1019A000B901681B790BCB019C0121503040CE015D
:1019B0000496FC01E20FF31F2081CE010496FC0186
:1019C000E40FF51F20838A81282F30E08B81882F38
:1019D00090E0A901481B590BCA019C0121503040DD
:1019E000CE010496FC01E20FF31F898180838B8175
:1019F0008F5F8B838A81982F96958B81891708F446
:101A0000BCCF8A81282F30E0CE010496FC01E20F82
:101A1000F31F1082CE0104960E94F80B67960FB652
:101A2000F894DEBF0FBECDBFCF91DF911F910F9114
:101A30000895DF93CF9300D0CDB7DEB79A83898323
:101A400083E065E041E00E94CC10ECE4F0E011821C
:101A50001082EAE4F0E089819A8191838083EFE447
:101A6000F0E082E88083EEE4F0E08AE18083E6E45F
:101A7000F0E08FE19EE4918380830F900F90CF91EF
:101A8000DF910895DF93CF93CDB7DEB7A4E3B0E045
:101A9000E4E3F0E080818F608C93CF91DF91089533
:101AA000DF93CF93CDB7DEB7A5E3B0E0E5E3F0E099
:101AB000808181608C93A5E3B0E0E5E3F0E0808174
:101AC0008D7F8C93A5E3B0E0E5E3F0E08081846056
:101AD0008C93A5E3B0E0E5E3F0E08081877F8C9311
:101AE000CF91DF910895DF93CF93CDB7DEB7A5E314
:101AF000B0E0E5E3F0E080818E7F8C93A5E3B0E079
:101B0000E5E3F0E0808182608C93A5E3B0E0E5E35B
:101B1000F0E080818B7F8C93A5E3B0E0E5E3F0E01B
:101B2000808188608C93CF91DF910895DF93CF936C
:101B3000CDB7DEB7A5E3B0E0E5E3F0E080818E7FCE
:101B40008C93A5E3B0E0E5E3F0E080818D7F8C939A
:101B5000A5E3B0E0E5E3F0E0808184608C93A5E349
:101B6000B0E0E5E3F0E08081877F8C93CF91DF9157
:101B70000895DF93CF93CDB7DEB7A5E3B0E0E5E3FB
:101B8000F0E0808181608C93A5E3B0E0E5E3F0E0D4
:101B900080818D7F8C93A5E3B0E0E5E3F0E0808168
:101BA0008B7F8C93A5E3B0E0E5E3F0E08081877F55
:101BB0008C93CF91DF910895DF93CF93CDB7DEB7AC
:101BC000A5E3B0E0E5E3F0E080818E7F8C93A5E3B0
:101BD000B0E0E5E3F0E080818D7F8C93A5E3B0E099
:101BE000E5E3F0E080818B7F8C93A5E3B0E0E5E353
:101BF000F0E08081877F8C93CF91DF9108950F93E0
:101C00001F93DF93CF93CDB7DEB7C654D0400FB646
:101C1000F894DEBF0FBECDBFEFE5F0E080E8808333
:101C20000E94420D0E944F060E945C0B8CED95E0D5
:101C30000E94190D0E94650C0E945F079093A900F5
:101C40008093A8000E94500D8CED95E00E94190D24
:101C50008091A8009091A9008F30910508F099C259
:101C60000E94DC0D0E94650C80E690E00E94F80B5B
:101C7000FE01ED5BFF4F80E090E8ABEBB4E48083C6
:101C80009183A283B3838E01015C1F4FFE01ED5B44
:101C9000FF4F608171818281938120E030E04AEFC3
:101CA00054E40E941F02DC01CB01F8018083918380
:101CB000A283B383FE01FF9660817181828193814B
:101CC00020E030E040E85FE30E94250488232CF404
:101CD00081E090E09EAF8DAF46C0FE01FF9660812F
:101CE00071818281938120E03FEF4FE757E40E94AA
:101CF000C503181664F5FE01ED5BFF4F608171812D
:101D00008281938120E030E040E251E40E941F0292
:101D1000DC01CB01BC01CD010E944900DC01CB01FB
:101D20009EAF8DAF0FC088EC90E09CAF8BAF8BADBA
:101D30009CAD0197F1F79CAF8BAF8DAD9EAD019738
:101D40009EAF8DAF8DAD9EAD009769F716C0FE01B9
:101D5000FF9660817181828193810E944900DC013C
:101D6000CB019EAF8DAF8DAD9EAD9AAF89AF89ADE2
:101D70009AAD0197F1F79AAF89AF0E94650C88EE92
:101D800093E00E94190D8EE690E00E94F80B0E94ED
:101D90005F079093AB008093AA0080E090E8ABEBE4
:101DA000B4E48DAB9EABAFABB8AF6DA97EA98FA9E4
:101DB00098AD20E030E04AEF54E40E941F02DC01BD
:101DC000CB0189AB9AABABABBCAB69A97AA98BA9A8
:101DD0009CA920E030E040E85FE30E9425048823CE
:101DE0002CF481E090E098AB8FA73FC069A97AA955
:101DF0008BA99CA920E03FEF4FE757E40E94C50361
:101E000018164CF56DA97EA98FA998AD20E030E099
:101E100040E251E40E941F02DC01CB01BC01CD0174
:101E20000E944900DC01CB0198AB8FA70FC088EC62
:101E300090E09EA78DA78DA59EA50197F1F79EA77F
:101E40008DA78FA598A9019798AB8FA78FA598A963
:101E5000009769F714C069A97AA98BA99CA90E9467
:101E60004900DC01CB0198AB8FA78FA598A99CA74F
:101E70008BA78BA59CA50197F1F79CA78BA780ED5D
:101E800097E00E94190D0E945F079093AD00809328
:101E9000AC000E94650C88E790E00E94F80B80E09F
:101EA00090E8ABEBB4E48FA398A7A9A7BAA76FA15A
:101EB00078A589A59AA520E030E04AEF54E40E9475
:101EC0001F02DC01CB018BA39CA3ADA3BEA36BA11E
:101ED0007CA18DA19EA120E030E040E85FE30E945C
:101EE000250488232CF481E090E09AA389A33FC0C5
:101EF0006BA17CA18DA19EA120E03FEF4FE757E4AD
:101F00000E94C50318164CF56FA178A589A59AA55E
:101F100020E030E040E251E40E941F02DC01CB01EE
:101F2000BC01CD010E944900DC01CB019AA389A329
:101F30000FC088EC90E098A38F8F8F8D98A10197A8
:101F4000F1F798A38F8F89A19AA101979AA389A3EA
:101F500089A19AA1009769F714C06BA17CA18DA1FA
:101F60009EA10E944900DC01CB019AA389A389A10B
:101F70009AA19E8F8D8F8D8D9E8D0197F1F79E8FEB
:101F80008D8F8CED95E00E94190D0E94650C2091BB
:101F9000AA003091AB008091AC009091AD00821707
:101FA000930708F07BC00E94960D0E94650C84E8A0
:101FB00090E00E94F80B80E090E0AAEFB3E4898FF4
:101FC0009A8FAB8FBC8F698D7A8D8B8D9C8D20E025
:101FD00030E04AEF54E40E941F02DC01CB018D8BFC
:101FE0009E8BAF8BB88F6D897E898F89988D20E00D
:101FF00030E040E85FE30E94250488232CF481E070
:1020000090E09C8B8B8B3FC06D897E898F89988DEA
:1020100020E03FEF4FE757E40E94C50318164CF548
:10202000698D7A8D8B8D9C8D20E030E040E251E40B
:102030000E941F02DC01CB01BC01CD010E944900BE
:10204000DC01CB019C8B8B8B0FC088EC90E09A8BD2
:10205000898B89899A890197F1F79A8B898B8B896A
:102060009C8901979C8B8B8B8B899C89009769F746
:10207000E3CD6D897E898F89988D0E944900DC01AE
:10208000CB019C8B8B8B8B899C89988B8F878F85C1
:1020900098890197F1F7988B8F87CECD0E94B90D63
:1020A0000E94650C8EE890E00E94F80B80E090E0C2
:1020B000AAEFB3E48B879C87AD87BE876B857C8551
:1020C0008D859E8520E030E04AEF54E40E941F0297
:1020D000DC01CB018F839887A987BA876F817885C8
:1020E00089859A8520E030E040E85FE30E9425047E
:1020F00088232CF481E090E09E838D833FC06F8124
:10210000788589859A8520E03FEF4FE757E40E9464
:10211000C50318164CF56B857C858D859E8520E062
:1021200030E040E251E40E941F02DC01CB01BC011F
:10213000CD010E944900DC01CB019E838D830FC03D
:1021400088EC90E09C838B838B819C810197F1F7D5
:102150009C838B838D819E8101979E838D838D814E
:102160009E81009769F768CD6F81788589859A850A
:102170000E944900DC01CB019E838D838D819E816D
:102180009A83898389819A810197F1F79A83898358
:1021900053CD0E94500D50CDDF93CF9300D000D08F
:1021A0000F92CDB7DEB789836A834B838A818830EB
:1021B00008F0D5C08981843008F0D1C08981282FEA
:1021C00030E03D832C838C819D818130910509F421
:1021D00043C02C813D81223031052CF48C819D81BE
:1021E000009771F0BCC02C813D812230310509F48B
:1021F0005FC08C819D818330910509F485C0AFC09B
:102200008B818130A1F4AAE3B0E0EAE3F0E08081C1
:10221000482F8A81282F30E081E090E0022E02C012
:10222000880F991F0A94E2F7842B8C9398C0AAE335
:10223000B0E0EAE3F0E08081482F8A81282F30E087
:1022400081E090E0022E02C0880F991F0A94E2F705
:10225000809584238C9383C08B818130A1F4A7E384
:10226000B0E0E7E3F0E08081482F8A81282F30E05A
:1022700081E090E0022E02C0880F991F0A94E2F7D5
:10228000842B8C936CC0A7E3B0E0E7E3F0E080819F
:10229000482F8A81282F30E081E090E0022E02C092
:1022A000880F991F0A94E2F7809584238C9357C076
:1022B0008B818130A1F4A4E3B0E0E4E3F0E080811D
:1022C000482F8A81282F30E081E090E0022E02C062
:1022D000880F991F0A94E2F7842B8C9340C0A4E3E3
:1022E000B0E0E4E3F0E08081482F8A81282F30E0DD
:1022F00081E090E0022E02C0880F991F0A94E2F755
:10230000809584238C932BC08B818130A1F4A1E331
:10231000B0E0E1E3F0E08081482F8A81282F30E0AF
:1023200081E090E0022E02C0880F991F0A94E2F724
:10233000842B8C9314C0A1E3B0E0E1E3F0E0808152
:10234000482F8A81282F30E081E090E0022E02C0E1
:10235000880F991F0A94E2F7809584238C930F903D
:102360000F900F900F900F90CF91DF910895DF9312
:10237000CF9300D000D00F92CDB7DEB789836A83A8
:102380004B838A81883008F0D5C08981843008F079
:10239000D1C08981282F30E03D832C838C819D81A1
:1023A0008130910509F443C02C813D8122303105F3
:1023B0002CF48C819D81009771F0BCC02C813D81F3
:1023C0002230310509F45FC08C819D8183309105F5
:1023D00009F485C0AFC08B818130A1F4ABE3B0E0DC
:1023E000EBE3F0E08081482F8A81282F30E081E004
:1023F00090E0022E02C0880F991F0A94E2F7842B06
:102400008C9398C0ABE3B0E0EBE3F0E08081482F21
:102410008A81282F30E081E090E0022E02C0880FF0
:10242000991F0A94E2F7809584238C9383C08B8153
:102430008130A1F4A8E3B0E0E8E3F0E08081482F28
:102440008A81282F30E081E090E0022E02C0880FC0
:10245000991F0A94E2F7842B8C936CC0A8E3B0E038
:10246000E8E3F0E08081482F8A81282F30E081E086
:1024700090E0022E02C0880F991F0A94E2F780951F
:1024800084238C9357C08B818130A1F4A5E3B0E005
:10249000E5E3F0E08081482F8A81282F30E081E059
:1024A00090E0022E02C0880F991F0A94E2F7842B55
:1024B0008C9340C0A5E3B0E0E5E3F0E08081482FD5
:1024C0008A81282F30E081E090E0022E02C0880F40
:1024D000991F0A94E2F7809584238C932BC08B81FB
:1024E0008130A1F4A2E3B0E0E2E3F0E08081482F84
:1024F0008A81282F30E081E090E0022E02C0880F10
:10250000991F0A94E2F7842B8C9314C0A2E3B0E0E5
:10251000E2E3F0E08081482F8A81282F30E081E0DB
:1025200090E0022E02C0880F991F0A94E2F780956E
:1025300084238C930F900F900F900F900F90CF915A
:10254000DF910895DF93CF9300D000D00F92CDB7E5
:10255000DEB78A836B8319828B81883008F084C050
:102560008A81843008F080C08A81282F30E03D8342
:102570002C834C815D814130510579F18C819D81A5
:102580008230910534F42C813D812115310569F0AB
:102590006BC04C815D8142305105B9F18C819D81C8
:1025A0008330910509F449C05FC0E9E3F0E0808120
:1025B000282F30E08B81882F90E0A90102C055952B
:1025C00047958A95E2F7CA0181709070882319F0C7
:1025D00081E0898349C0198247C0E6E3F0E0808149
:1025E000282F30E08B81882F90E0A90102C05595FB
:1025F00047958A95E2F7CA0181709070882319F097
:1026000081E0898331C019822FC0E3E3F0E080814B
:10261000282F30E08B81882F90E0A90102C05595CA
:1026200047958A95E2F7CA0181709070882319F066
:1026300081E0898319C0198217C0E0E3F0E080814E
:10264000282F30E08B81882F90E0A90102C055959A
:1026500047958A95E2F7CA0181709070882319F036
:1026600081E0898301C0198289810F900F900F90BA
:102670000F900F90CF91DF910895DF93CF9300D00B
:1026800000D0CDB7DEB789836A838981843090F525
:102690008981282F30E03C832B838B819C81813082
:1026A0009105D1F02B813C81223031052CF48B81B6
:1026B0009C81009761F01EC02B813C812230310546
:1026C00081F08B819C818330910581F013C0EAE316
:1026D000F0E08A8180830EC0E7E3F0E08A818083A6
:1026E00009C0E4E3F0E08A81808304C0E1E3F0E024
:1026F0008A8180830F900F900F900F90CF91DF9180
:102700000895DF93CF9300D000D0CDB7DEB7898393
:102710006A838981843090F58981282F30E03C8359
:102720002B838B819C8181309105D1F02B813C8161
:10273000223031052CF48B819C81009761F01EC002
:102740002B813C812230310581F08B819C8183304B
:10275000910581F013C0EBE3F0E08A8180830EC025
:10276000E8E3F0E08A81808309C0E5E3F0E08A8154
:10277000808304C0E2E3F0E08A8180830F900F90B1
:102780000F900F90CF91DF910895DF93CF9300D0FA
:1027900000D0CDB7DEB78A8319828A81843090F564
:1027A0008A81282F30E03C832B838B819C81813070
:1027B0009105D1F02B813C81223031052CF48B81A5
:1027C0009C81009761F01EC02B813C812230310535
:1027D00081F08B819C818330910581F013C0E9E306
:1027E000F0E0808189830EC0E6E3F0E08081898398
:1027F00009C0E3E3F0E08081898304C0E0E3F0E016
:102800008081898389810F900F900F900F90CF91D5
:10281000DF910895AA1BBB1B51E107C0AA1FBB1F74
:10282000A617B70710F0A61BB70B881F991F5A955C
:10283000A9F780959095BC01CD010895A1E21A2ECB
:10284000AA1BBB1BFD010DC0AA1FBB1FEE1FFF1F54
:10285000A217B307E407F50720F0A21BB30BE40BA4
:10286000F50B661F771F881F991F1A9469F76095EB
:102870007095809590959B01AC01BD01CF010895A5
:102880002F923F924F925F926F927F928F929F9280
:10289000AF92BF92CF92DF92EF92FF920F931F936E
:1028A000CF93DF93CDB7DEB7CA1BDB0B0FB6F8941F
:1028B000DEBF0FBECDBF09942A88398848885F845F
:1028C0006E847D848C849B84AA84B984C884DF80D0
:1028D000EE80FD800C811B81AA81B981CE0FD11DB4
:1028E0000FB6F894DEBF0FBECDBFED010895F8948A
:0228F000FFCF18
:1028F2006361722069732073746F7065640053633F
:10290200616E206C656674005363616E202072698B
:10291200676874007475726E5F6C656674007475B6
:10292200726E5F7269676874000000000000000048
:022932000000A3
:00000001FF
